:100000000C9444000C946C000C946C000C946C00E8
:100010000C946C000C946C000C946C000C946C00B0
:100020000C946C000C946C000C946C000C946C00A0
:100030000C946C000C946C000C946C000C946C0090
:100040000C9424020C946C000C9494020C946E0298
:100050000C946C000C946C000C946C000C946C0070
:100060000C946C000C946C0005A84CCDB2D44EB925
:100070003836A9020C50B9918688083CA6AAAA2A4B
:10008000BE000000803FF30511241FBECFEFD8E073
:10009000DEBFCDBF11E0A0E0B1E0E0E2F3E102C0DD
:1000A00005900D92A033B107D9F721E0A0E3B1E0AC
:1000B00001C01D92AA3DB207E1F710E0C4E4D0E010
:1000C00004C02197FE010E948809C334D107C9F7F3
:1000D0000E94C6020C948E090C9400003FB7F8945D
:1000E0008091390190913A01A0913B01B0913C017E
:1000F00026B5A89B05C02F3F19F00196A11DB11D83
:100100003FBFBA2FA92F982F8827BC01CD01620FBE
:10011000711D811D911D42E0660F771F881F991F79
:100120004A95D1F70895AF92BF92CF92DF92EF92A6
:10013000FF920F931F93CF93DF936C017B018B0191
:10014000040F151FEB015E01AE18BF08C017D107E1
:1001500059F06991D601ED91FC910190F081E02D6B
:10016000C6010995892B79F7C501DF91CF911F91C0
:100170000F91FF90EF90DF90CF90BF90AF900895D8
:10018000FC01538D448D252F30E0842F90E0821B9D
:10019000930B541710F0CF96089501970895FC0122
:1001A000918D828D981761F0A28DAE0FBF2FB11D7A
:1001B0005D968C91928D9F5F9F73928F90E00895D2
:1001C0008FEF9FEF0895FC01918D828D981731F08C
:1001D000828DE80FF11D858D90E008958FEF9FEFE0
:1001E0000895FC01918D228D892F90E0805C9F4FB6
:1001F000821B91098F73992708958DE391E00E94E6
:10020000F10021E0892B09F420E0822F089580E09D
:1002100090E0892B29F00E94FD0081110C940000D0
:100220000895FC01A48DA80FB92FB11DA35ABF4F8B
:100230002C91848D90E001968F739927848FA689E5
:10024000B7892C93A089B1898C91837080648C9339
:10025000938D848D981306C00288F389E02D8081E8
:100260008F7D80830895EF92FF920F931F93CF931A
:10027000DF93EC0181E0888F9B8D8C8D98131AC0E1
:10028000E889F989808185FF15C09FB7F894EE89C8
:10029000FF896083E889F989808183708064808325
:1002A0009FBF81E090E0DF91CF911F910F91FF9070
:1002B000EF900895F62E0B8D10E00F5F1F4F0F7318
:1002C0001127E02E8C8D8E110CC00FB607FCFACFD3
:1002D000E889F989808185FFF5CFCE010E9411015F
:1002E000F1CFEB8DEC0FFD2FF11DE35AFF4FF082A4
:1002F0009FB7F8940B8FEA89FB8980818062CFCF0A
:10030000682F8DE391E00C943301CF93DF93EC01E0
:10031000888D8823B9F0AA89BB89E889F9898C91ED
:1003200085FD03C0808186FD0DC00FB607FCF7CFA9
:100330008C9185FFF2CF808185FFEDCFCE010E94A9
:100340001101E9CFDF91CF910895FC0101900020C8
:10035000E9F73197AF01481B590BBC018DE391E0E0
:100360000C9493008F929F92AF92BF920F931F9322
:10037000CF93DF93CDB7DEB7A1970FB6F894DEBF6A
:100380000FBECDBF19A2423008F44AE08E010F5DC6
:100390001F4F842E912CB12CA12CA50194010E94F9
:1003A000F606E62FB901CA01EA30F4F4E05DD8019F
:1003B000EE938D01232B242B252B79F790E080E001
:1003C000109719F0CD010E94A501A1960FB6F894DF
:1003D000DEBF0FBECDBFDF91CF911F910F91BF90B8
:1003E000AF909F908F900895E95CE1CFCF92DF921C
:1003F000EF92FF92CF93DF936C01990FEE08FF0805
:10040000F7FE17C08DE20E948001EC016627772776
:10041000CB016C197D098E099F094AE00E94B20147
:100420008C0F9D1FDF91CF91FF90EF90DF90CF90C9
:1004300008954AE0C701B601DF91CF91FF90EF9098
:10044000DF90CF900C94B2011F920F920FB60F92D3
:1004500011242F933F938F939F93AF93BF938091DA
:10046000350190913601A0913701B091380130915A
:10047000340123E0230F2D3758F50196A11DB11D3E
:10048000209334018093350190933601A093370176
:10049000B09338018091390190913A01A0913B01CC
:1004A000B0913C010196A11DB11D8093390190933B
:1004B0003A01A0933B01B0933C01BF91AF919F9152
:1004C0008F913F912F910F900FBE0F901F90189515
:1004D00026E8230F0296A11DB11DD2CF1F920F92C5
:1004E0000FB60F9211242F933F934F935F936F9307
:1004F0007F938F939F93AF93BF93EF93FF938DE37E
:1005000091E00E941101FF91EF91BF91AF919F91F6
:100510008F917F916F915F914F913F912F910F90AC
:100520000FBE0F901F9018951F920F920FB60F924B
:1005300011242F938F939F93EF93FF93E0914D019D
:10054000F0914E018081E0915301F091540182FDC0
:100550001BC09081809156018F5F8F73209157014E
:10056000821741F0E0915601F0E0E35CFE4F958F79
:1005700080935601FF91EF919F918F912F910F9052
:100580000FBE0F901F9018958081F4CFCF93DF930B
:1005900000D000D0CDB7DEB7789484B5826084BD3A
:1005A00084B5816084BD85B5826085BD85B5816077
:1005B00085BD80916E00816080936E0010928100F5
:1005C00080918100826080938100809181008160B0
:1005D0008093810080918000816080938000809171
:1005E000B10084608093B1008091B00081608093FD
:1005F000B00080917A00846080937A0080917A00C4
:10060000826080937A0080917A00816080937A0082
:1006100080917A00806880937A001092C100E09106
:100620004D01F0914E0182E08083E0914901F0910B
:100630004A011082E0914B01F0914C0180E18083EE
:1006400010925501E0915101F091520186E08083B2
:10065000E0914F01F0915001808180618083E091B1
:100660004F01F0915001808188608083E0914F01BB
:10067000F0915001808180688083E0914F01F0917A
:10068000500180818F7D808380E480937C00809105
:100690007A00806480937A0080917A0086FDFCCF96
:1006A0006091780070917900072E000C880B990BEF
:1006B000611571058105910511F00E94BB060E942C
:1006C0006C0625E130E040E050E00E94C4066A502C
:1006D0007109810991090E94D1072AE037ED43E2AF
:1006E0005DE30E9486082091060130910701409148
:1006F0000801509109010E94280720E030E040EAFB
:1007000051E40E94940787FDF2C10E946C0625E126
:1007100030E040E050E00E94C4066A50710981094F
:1007200091090E94D1072AE037ED43E25DE30E9480
:1007300086082091060130910701409108015091EF
:1007400009010E94280720E030E040E752E40E94BF
:10075000810818160CF4D0C10E946C0625E130E027
:1007600040E050E00E94C4066A5071098109910975
:100770000E94D1072AE037ED43E25DE30E9486083C
:100780002091060130910701409108015091090123
:100790000E94280760930601709307018093080167
:1007A0009093090160913001709131018091320183
:1007B000909133010E94CF0724E330E847E35AE3E6
:1007C0000E9486080E94F3086B017C0120E030E063
:1007D000A9010E94940787FF03C0C12CD12C760188
:1007E0000E946C064B015C0120E030E041E654E4DD
:1007F000C701B6010E94860820E030E046E953E4D4
:100800000E9428070E9499076B01C501B4012FE1DE
:1008100030E040E050E00E94C4066F507109810949
:1008200091099601260F371F3C832B83C09030011E
:10083000D0903101E0903201F0903301C701B60150
:1008400024E130E040E050E00E94F6068B01025EB9
:100850001F4FA4E1B0E0A70196010E94E30620E942
:1008600031E040E050E00E94F6061B0130E7231A19
:100870003EEF330AC701B60122E0660F771F881FDB
:10088000991F2A95D1F72AE530E040E050E00E9418
:10089000F6069B012B5F3F4F3A832983C114D10495
:1008A000E104F104C1F0C701B60123E030E040E00B
:1008B00050E00E94F606672B682B692B61F480914B
:1008C0000401909105018B3591052CF001979093CF
:1008D00005018093040120E030E040EA50E460919B
:1008E00000017091010180910201909103010E9429
:1008F00081081816F4F50E946C0625E030E040E00F
:1009000050E00E94C40662507109810991090E9459
:10091000D1072DEC3CEC4CE45DE30E9486082DEC05
:100920003CEC4CEC5EE30E9428079B01AC0160911B
:1009300000017091010180910201909103010E94D8
:1009400027076B017C0120E030E040EA50E40E9480
:10095000940787FF06C0C12CD12C90EAE92E90E4C1
:10096000F92EC0920001D0920101E0920201F092B2
:100970000301C0903001D0903101E0903201F0903D
:100980003301A7E0B0E0A70196010E94E3064B0106
:100990005C014AE0C701B6010E94B2018CE20E94EC
:1009A0008001C0900601D0900701E0900801F0900E
:1009B0000901A7019601C701B6010E94FB0888231F
:1009C00009F49FC080E291E00E94A5018CE20E94A0
:1009D00080018B819C810E94F6018CE20E94800143
:1009E000C8010E94F6018CE20E948001C1010E94B0
:1009F000F6018CE20E94800189819A810E94F601B1
:100A00008CE20E94800180910401909105010E9476
:100A1000F6018CE20E948001609100017091010159
:100A200080910201909103010E949907CB010E94DD
:100A3000F6018CE20E9480014AE0C501B401B7FED4
:100A40000BC08DE20E94800166277727CB016819D1
:100A500079098A099B094AE00E94B2018CE291E07F
:100A60000E94A5018091300190913101A091320145
:100A7000B09133010196A11DB11D80933001909377
:100A80003101A0933201B09333010E946E006B01DB
:100A90007C0188EE882E83E0982EA12CB12C0E9438
:100AA0006E006C197D098E099F09683E73408105AF
:100AB0009105A8F331E0831A9108A108B10888EEE6
:100AC000C80E83E0D81EE11CF11C81149104A1041E
:100AD000B10429F780E090E0892B09F4F0CD0E9461
:100AE000FD00882309F4EBCD0E940000E8CD60E012
:100AF00070E080EA91E44ECE60E070E080E792E43E
:100B000049CE26013701E89477F82FEF3FEF4FE702
:100B10005FE7C301B2010E94FB0881110DC02FEFF6
:100B20003FEF4FE75FE7C301B2010E949407181639
:100B30001CF484E291E048CF2FEF3FEF4FE75FE4F2
:100B4000C701B6010E94810818161CF488E291E0E2
:100B50003BCF2FEF3FEF4FE75FECC701B6010E949D
:100B6000940787FDF3CF20E030E0A901C701B6016B
:100B70000E94940787FF07C08DE20E948001F7FA68
:100B8000F094F7F8F0942DEC3CEC4CE45DE3C701F5
:100B9000B6010E9428072B013C010E94A0076B01AF
:100BA0007C010E94CF079B01AC01C301B2010E94EE
:100BB00027072B013C014AE0C701B6010E94B201A0
:100BC0008EE20E94800120E030E040E251E4C30167
:100BD000B2010E9486080E94A00790E080E04AE0EF
:100BE0000E94B201F3CEEDE3F1E01382128288EEAF
:100BF00093E0A0E0B0E084839583A683B78382E18D
:100C000091E09183808385EC90E09587848784ECE4
:100C100090E09787868780EC90E0918B808B81ECC9
:100C200090E0938B828B82EC90E0958B848B86ECAA
:100C300090E0978B868B118E128E138E148E0895F2
:100C40008F929F92AF92BF92CF92DF92EF92FF92DC
:100C5000CF93DF93EC01688179818A819B81611553
:100C600071058105910521F464E279ED8BE597E04A
:100C70002DE133EF41E050E00E94C40649015A01E2
:100C80009B01AC01A7EAB1E40E94E3066B017C0181
:100C9000ACEEB4EFA50194010E94F106C60ED71E7A
:100CA000E81EF91EF7FE06C081E0C81AD108E10867
:100CB00080E8F80AC882D982EA82FB82C701B601BD
:100CC0009F77DF91CF91FF90EF90DF90CF90BF9013
:100CD000AF909F908F9008958F929F92AF92BF9206
:100CE000CF92DF92EF92FF9260910A0170910B0117
:100CF00080910C0190910D0161157105810591059F
:100D000021F464E279ED8BE597E02DE133EF41E0EA
:100D100050E00E94C40649015A019B01AC01A7EAB8
:100D2000B1E40E94E3066B017C01ACEEB4EFA501D7
:100D300094010E94F106C60ED71EE81EF91EF7FEAA
:100D400006C081E0C81AD108E10880E8F80AC0921C
:100D50000A01D0920B01E0920C01F0920D01C70143
:100D6000B6019F77FF90EF90DF90CF90BF90AF904C
:100D70009F908F90089560930A0170930B01809368
:100D80000C0190930D010895052E97FB1EF400941D
:100D90000E94DB0657FD07D00E94F60607FC03D031
:100DA0004EF40C94DB0650954095309521953F4FBD
:100DB0004F4F5F4F089590958095709561957F4F47
:100DC0008F4F9F4F08950E941807A59F900DB49FC5
:100DD000900DA49F800D911D11240895B7FF0C94D0
:100DE000E3060E94E306821B930B0895A1E21A2EEC
:100DF000AA1BBB1BFD010DC0AA1FBB1FEE1FFF1FBF
:100E0000A217B307E407F50720F0A21BB30BE40B0E
:100E1000F50B661F771F881F991F1A9469F7609555
:100E20007095809590959B01AC01BD01CF0108950F
:100E3000A29FB001B39FC001A39F700D811D11241B
:100E4000911DB29F700D811D1124911D0895505860
:100E5000BB27AA270E943F070C9447080E94390825
:100E600038F00E94400820F039F49F3F19F426F42E
:100E70000C9436080EF4E095E7FB0C943008E92F4B
:100E80000E94580858F3BA1762077307840795073A
:100E900020F079F4A6F50C947A080EF4E0950B2E68
:100EA000BA2FA02D0B01B90190010C01CA01A001BC
:100EB0001124FF27591B99F0593F50F4503E68F117
:100EC0001A16F040A22F232F342F4427585FF3CF58
:100ED000469537952795A795F0405395C9F77EF429
:100EE0001F16BA0B620B730B840BBAF09150A1F072
:100EF000FF0FBB1F661F771F881FC2F70EC0BA0FF8
:100F0000621F731F841F48F4879577956795B7957F
:100F1000F7959E3F08F0B0CF9395880F08F099277A
:100F2000EE0F9795879508950E940C0808F481E0CC
:100F300008950E94A0076894B1110C947B0808954D
:100F40000E94600888F09F5798F0B92F9927B751F1
:100F5000B0F0E1F0660F771F881F991F1AF0BA955D
:100F6000C9F714C0B13091F00E947A08B1E0089539
:100F70000C947A08672F782F8827B85F39F0B93F2B
:100F8000CCF3869577956795B395D9F73EF4909510
:100F90008095709561957F4F8F4F9F4F0895E8948E
:100FA00009C097FB3EF490958095709561957F4FB1
:100FB0008F4F9F4F9923A9F0F92F96E9BB2793955F
:100FC000F695879577956795B795F111F8CFFAF46F
:100FD000BB0F11F460FF1BC06F5F7F4F8F4F9F4FA0
:100FE00016C0882311F096E911C0772321F09EE8FE
:100FF000872F762F05C0662371F096E8862F70E064
:1010000060E02AF09A95660F771F881FDAF7880F3D
:101010009695879597F90895990F0008550FAA0B93
:10102000E0E8FEEF16161706E807F907C0F01216FB
:101030001306E407F50798F0621B730B840B950BFE
:1010400039F40A2661F0232B242B252B21F4089553
:101050000A2609F4A140A6958FEF811D811D0895F0
:1010600097F99F6780E870E060E008959FEF80EC5B
:10107000089500240A9416161706180609060895FE
:1010800000240A9412161306140605060895092E64
:101090000394000C11F4882352F0BB0F40F4BF2BD3
:1010A00011F460FF04C06F5F7F4F8F4F9F4F089513
:1010B00057FD9058440F551F59F05F3F71F0479509
:1010C000880F97FB991F61F09F3F79F087950895EE
:1010D000121613061406551FF2CF4695F1DF08C00D
:1010E000161617061806991FF1CF8695710561052A
:1010F00008940895E894BB2766277727CB0197F9D2
:1011000008950E940C0808F48FEF08950E94990832
:101110000C9447080E94390838F00E94400820F0DB
:10112000952311F00C9430080C94360811240C947B
:101130007B080E94580870F3959FC1F3950F50E00B
:10114000551F629FF001729FBB27F00DB11D639F79
:10115000AA27F00DB11DAA1F649F6627B00DA11D1F
:10116000661F829F2227B00DA11D621F739FB00DC5
:10117000A11D621F839FA00D611D221F749F332735
:10118000A00D611D231F849F600D211D822F762FCE
:101190006A2F11249F5750409AF0F1F088234AF0AB
:1011A000EE0FFF1FBB1F661F771F881F9150504017
:1011B000A9F79E3F510580F00C9430080C947B08F1
:1011C0005F3FE4F3983ED4F3869577956795B7959E
:1011D000F795E7959F5FC1F7FE2B880F911D9695B8
:1011E000879597F908959F930E9402090F9007FC35
:1011F000EE5F0C942B090E940C08880B990B089544
:101200000C9436080E946008D8F3E894E0E0BB270D
:101210009F57F0F02AED3FE049EC06C0EE0FBB0F00
:10122000661F771F881F28F0B23A6207730784078A
:1012300028F0B25A620B730B840BE3959A9572F700
:10124000803830F49A95BB0F661F771F881FD2F73E
:1012500090480C944109EF93E0FF07C0A2EA2AED01
:101260003FE049EC5FEB0E943F070E9447080F9068
:10127000039401FC9058E8E6F0E00C944D099F3F80
:1012800031F0915020F4879577956795B795880F41
:10129000911D9695879597F908959F938F937F93C6
:1012A0006F93FF93EF939B01AC010E948608EF912F
:1012B000FF910E9461092F913F914F915F910C9492
:1012C0008608DF93CF931F930F93FF92EF92DF92E5
:1012D0007B018C01689406C0DA2EEF010E94990808
:1012E000FE01E894A5912591359145915591A6F37C
:1012F000EF010E943F07FE019701A801DA9469F708
:10130000DF90EF90FF900F911F91CF91DF910895A3
:10131000EE0FFF1F0590F491E02D0994F894FFCF94
:101320000000C84264000000C84101000000000045
:10133000000033019300C0008501F100CF00E300FD
:101340006E616E00696E66006F7666000D0A0000C1
:00000001FF
