:100000000C9435000C945D000C945D000C945D0024
:100010000C945D000C945D000C945D000C945D00EC
:100020000C945D000C945D000C945D000C945D00DC
:100030000C945D000C945D000C945D000C945D00CC
:100040000C9415020C945D000C9485020C945F02D4
:100050000C945D000C945D000C945D000C945D00AC
:100060000C945D000C945D000A0511241FBECFEFB7
:10007000D8E0DEBFCDBF11E0A0E0B1E0E4E0F1E107
:1000800002C005900D92A632B107D9F721E0A6E291
:10009000B1E001C01D92A03DB207E1F710E0C5E359
:1000A000D0E004C02197FE010E947A08C433D10732
:1000B000C9F70E94B7020C9480080C9400003FB767
:1000C000F89480912F0190913001A0913101B0916D
:1000D000320126B5A89B05C02F3F19F00196A11D3E
:1000E000B11D3FBFBA2FA92F982F8827BC01CD0182
:1000F000620F711D811D911D42E0660F771F881FE1
:10010000991F4A95D1F70895AF92BF92CF92DF928F
:10011000EF92FF920F931F93CF93DF936C017B01BC
:100120008B01040F151FEB015E01AE18BF08C0174D
:10013000D10759F06991D601ED91FC910190F081C0
:10014000E02DC6010995892B79F7C501DF91CF9183
:100150001F910F91FF90EF90DF90CF90BF90AF90E5
:100160000895FC01538D448D252F30E0842F90E0BD
:10017000821B930B541710F0CF96089501970895A2
:10018000FC01918D828D981761F0A28DAE0FBF2F6B
:10019000B11D5D968C91928D9F5F9F73928F90E0C1
:1001A00008958FEF9FEF0895FC01918D828D981730
:1001B00031F0828DE80FF11D858D90E008958FEF6D
:1001C0009FEF0895FC01918D228D892F90E0805C36
:1001D0009F4F821B91098F739927089583E391E0C4
:1001E0000E94E20021E0892B09F420E0822F08958B
:1001F00080E090E0892B29F00E94EE0081110C94A0
:1002000000000895FC01A48DA80FB92FB11DA35AB9
:10021000BF4F2C91848D90E001968F739927848F26
:10022000A689B7892C93A089B1898C918370806449
:100230008C93938D848D981306C00288F389E02DEA
:1002400080818F7D80830895EF92FF920F931F939B
:10025000CF93DF93EC0181E0888F9B8D8C8D981379
:100260001AC0E889F989808185FF15C09FB7F89485
:10027000EE89FF896083E889F989808183708064D1
:1002800080839FBF81E090E0DF91CF911F910F911C
:10029000FF90EF900895F62E0B8D10E00F5F1F4F2B
:1002A0000F731127E02E8C8D8E110CC00FB607FC3A
:1002B000FACFE889F989808185FFF5CFCE010E94C8
:1002C0000201F1CFEB8DEC0FFD2FF11DE35AFF4F33
:1002D000F0829FB7F8940B8FEA89FB898081806256
:1002E000CFCF682F83E391E00C942401CF93DF9369
:1002F000EC01888D8823B9F0AA89BB89E889F9893E
:100300008C9185FD03C0808186FD0DC00FB607FC72
:10031000F7CF8C9185FFF2CF808185FFEDCFCE01A5
:100320000E940201E9CFDF91CF910895FC01019075
:100330000020E9F73197AF01481B590BBC0183E35B
:1003400091E00C9484008F929F92AF92BF920F9392
:100350001F93CF93DF93CDB7DEB7A1970FB6F89475
:10036000DEBF0FBECDBF19A2423008F44AE08E01B5
:100370000F5D1F4F842E912CB12CA12CA50194014F
:100380000E940D06E62FB901CA01EA30F4F4E05DDF
:10039000D801EE938D01232B242B252B79F790E0A8
:1003A00080E0109719F0CD010E949601A1960FB63A
:1003B000F894DEBF0FBECDBFDF91CF911F910F919B
:1003C000BF90AF909F908F900895E95CE1CFCF925E
:1003D000DF92EF92FF92CF93DF936C01990FEE08BB
:1003E000FF08F7FE17C08DE20E947101EC0166273D
:1003F0007727CB016C197D098E099F094AE00E947D
:10040000A3018C0F9D1FDF91CF91FF90EF90DF90A4
:10041000CF9008954AE0C701B601DF91CF91FF90D8
:10042000EF90DF90CF900C94A3011F920F920FB624
:100430000F9211242F933F938F939F93AF93BF936A
:1004400080912B0190912C01A0912D01B0912E0152
:1004500030912A0123E0230F2D3758F50196A11D75
:10046000B11D20932A0180932B0190932C01A0931E
:100470002D01B0932E0180912F0190913001A09118
:100480003101B09132010196A11DB11D80932F0160
:1004900090933001A0933101B0933201BF91AF919D
:1004A0009F918F913F912F910F900FBE0F901F90B2
:1004B000189526E8230F0296A11DB11DD2CF1F92D9
:1004C0000F920FB60F9211242F933F934F935F9388
:1004D0006F937F938F939F93AF93BF93EF93FF930C
:1004E00083E391E00E940201FF91EF91BF91AF91F0
:1004F0009F918F917F916F915F914F913F912F913C
:100500000F900FBE0F901F9018951F920F920FB66D
:100510000F9211242F938F939F93EF93FF93E0916A
:100520004301F09144018081E0914901F0914A0139
:1005300082FD1BC0908180914C018F5F8F73209151
:100540004D01821741F0E0914C01F0E0ED5CFE4F6F
:10055000958F80934C01FF91EF919F918F912F91F7
:100560000F900FBE0F901F9018958081F4CFCF93FE
:10057000DF93CDB7DEB76E970FB6F894DEBF0FBE30
:10058000CDBF789484B5826084BD84B5816084BD1C
:1005900085B5826085BD85B5816085BD80916E0021
:1005A000816080936E001092810080918100826052
:1005B000809381008091810081608093810080918F
:1005C00080008160809380008091B100846080937E
:1005D000B1008091B00081608093B00080917A007A
:1005E000846080937A0080917A00826080937A00A0
:1005F00080917A00816080937A0080917A0080688F
:1006000080937A001092C100E0914301F09144017F
:1006100082E08083E0913F01F09140011082E091FF
:100620004101F091420180E1808310924B01E09101
:100630004701F091480186E08083E0914501F09107
:100640004601808180618083E0914501F0914601FF
:10065000808188608083E0914501F091460180812E
:1006600080688083E0914501F091460180818F7D13
:10067000808380E480937C0080917A008064809302
:100680007A0080917A0086FDFCCF609178007091AD
:100690007900072E000C880B990B611571058105F7
:1006A000910511F00E94D2059EE6492E512C612C35
:1006B000712C15E020E0222E20E0322E0E948305CE
:1006C0002DE330E040E050E00E94DB056E517109FF
:1006D000810991090E94530720E030E040E251E493
:1006E0000E94B00620E030E048EC51E40E943F0652
:1006F0006B017C014B015C010E948305A301920107
:100700000E94DB059B01AC01265F3F4F4F4F5F4FBF
:100710002D833E834F8358870E948305A301920156
:100720000E94DB059B01AC01265F3F4F4F4F5F4F9F
:1007300029873A874B875C870E948305A301920132
:100740000E94DB059B01AC01265F3F4F4F4F5F4F7F
:100750002D873E874F87588B0E948305A301920106
:100760000E94DB059B01AC01265F3F4F4F4F5F4F5F
:10077000298B3A8B4B8B5C8B0E94830524E630E0FF
:1007800040E050E00E94DB056D8B7E8B8F8B988F55
:100790000E94830520E530E040E050E00E94DB0548
:1007A0009B01AC012C5E3F4F4F4F5F4F298F3A8F1B
:1007B0004B8F5C8F609126017091270180912801F9
:1007C00090912901169FA001179F500D11245E8F53
:1007D0004D8F4AE00E94A3018CE20E947101A701A3
:1007E0009601C701B6010E947508882309F47DC0EF
:1007F00086E191E00E9496018CE20E9471018D8158
:100800009E810E94E7018CE20E94710189859A8590
:100810000E94E7018CE20E9471018D859E850E94F5
:10082000E7018CE20E94710189899A890E94E7019F
:100830008CE20E9471018D899E890E94E7018CE201
:100840000E947101898D9A8D0E94E7018CE20E94BD
:1008500071018D8D9E8D0E94E70182E291E00E94E0
:1008600096018091260190912701A0912801B091D5
:1008700029010196A11DB11D8093260190932701A6
:10088000A0932801B09329010E945F006B017C01B5
:1008900088EE882E83E0982EA12CB12C0E945F0058
:1008A0006C197D098E099F09683E73408105910589
:1008B000A8F391E0891A9108A108B108A8EECA0E20
:1008C000A3E0DA1EE11CF11C81149104A104B1041F
:1008D00029F72114310409F4F1CE0E94EE00882397
:1008E00009F4ECCE0E940000E9CED701C601BF7723
:1008F00089839A83AB83BC832FEF3FEF4FE75FE79A
:10090000BC01CD010E94750881110FC02FEF3FEF90
:100910004FE75FE769817A818B819C810E94AB06FA
:1009200018161CF48AE191E065CF2FEF3FEF4FE7F7
:100930005FE4C701B6010E94030818161CF48EE19B
:1009400091E058CF2FEF3FEF4FE75FECC701B601C3
:100950000E94AB0687FDF3CF20E030E0A901C7017C
:10096000B6010E94AB0687FF09C08DE20E947101AB
:1009700046015701B7FAB094B7F8B0942AE037EDC2
:1009800043EA5BE3C501B4010E943F064B015C01F1
:100990000E9422076B017C010E9451079B01AC0160
:1009A000C501B4010E943E064B015C014AE0C7014B
:1009B000B6010E94A3018EE20E94710120E030E0A6
:1009C00040E251E4C501B4010E9408084B015C01FA
:1009D0000E9422076B01F12CE12C4AE0C701B6010D
:1009E0000E94A301C701B6010E9451079B01AC01FF
:1009F000C501B4010E943E0620E030E040E251E42F
:100A00000E9408080E94220790E080E04AE00E94CD
:100A1000A301F2CEE3E3F1E01382128288EE93E0C9
:100A2000A0E0B0E084839583A683B78388E091E05B
:100A30009183808385EC90E09587848784EC90E0B7
:100A40009787868780EC90E0918B808B81EC90E09B
:100A5000938B828B82EC90E0958B848B86EC90E07C
:100A6000978B868B118E128E138E148E08958F9213
:100A70009F92AF92BF92CF92DF92EF92FF92CF936D
:100A8000DF93EC01688179818A819B816115710511
:100A90008105910521F464E279ED8BE597E02DE184
:100AA00033EF41E050E00E94DB0549015A019B0110
:100AB000AC01A7EAB1E40E94FA056B017C01ACEE3F
:100AC000B4EFA50194010E940806C60ED71EE81EC9
:100AD000F91EF7FE06C081E0C81AD108E10880E8D7
:100AE000F80AC882D982EA82FB82C701B6019F77E1
:100AF000DF91CF91FF90EF90DF90CF90BF90AF90BC
:100B00009F908F9008958F929F92AF92BF92CF92B5
:100B1000DF92EF92FF92609100017091010180914C
:100B2000020190910301611571058105910521F480
:100B300064E279ED8BE597E02DE133EF41E050E0A1
:100B40000E94DB0549015A019B01AC01A7EAB1E40F
:100B50000E94FA056B017C01ACEEB4EFA501940193
:100B60000E940806C60ED71EE81EF91EF7FE06C034
:100B700081E0C81AD108E10880E8F80AC0920001B3
:100B8000D0920101E0920201F0920301C701B60187
:100B90009F77FF90EF90DF90CF90BF90AF909F90A6
:100BA0008F9008956093000170930101809302017A
:100BB000909303010895052E97FB1EF400940E9464
:100BC000F20557FD07D00E940D0607FC03D04EF436
:100BD0000C94F20550954095309521953F4F4F4F1D
:100BE0005F4F089590958095709561957F4F8F4FD9
:100BF0009F4F08950E942F06A59F900DB49F900DC2
:100C0000A49F800D911D11240895B7FF0C94FA053F
:100C10000E94FA05821B930B0895A1E21A2EAA1BCB
:100C2000BB1BFD010DC0AA1FBB1FEE1FFF1FA2179C
:100C3000B307E407F50720F0A21BB30BE40BF50B99
:100C4000661F771F881F991F1A9469F76095709522
:100C5000809590959B01AC01BD01CF010895A29FA5
:100C6000B001B39FC001A39F700D811D1124911D80
:100C7000B29F700D811D1124911D08955058BB27FE
:100C8000AA270E9456060C94C9070E94BB0738F099
:100C90000E94C20720F039F49F3F19F426F40C9407
:100CA000B8070EF4E095E7FB0C94B207E92F0E9419
:100CB000DA0758F3BA17620773078407950720F01D
:100CC00079F4A6F50C94FC070EF4E0950B2EBA2FE0
:100CD000A02D0B01B90190010C01CA01A001112442
:100CE000FF27591B99F0593F50F4503E68F11A16EE
:100CF000F040A22F232F342F4427585FF3CF46957F
:100D000037952795A795F0405395C9F77EF41F16A0
:100D1000BA0B620B730B840BBAF09150A1F0FF0F6A
:100D2000BB1F661F771F881FC2F70EC0BA0F621F56
:100D3000731F841F48F4879577956795B795F79546
:100D40009E3F08F0B0CF9395880F08F09927EE0FDB
:100D50009795879508950E948E0708F481E008957D
:100D60000E94C4060C94C9070E94C20758F00E9452
:100D7000BB0740F029F45F3F29F00C94B2075111F2
:100D80000C94FD070C94B8070E94DA0768F39923C6
:100D9000B1F3552391F3951B550BBB27AA27621777
:100DA0007307840738F09F5F5F4F220F331F441F84
:100DB000AA1FA9F335D00E2E3AF0E0E832D09150B8
:100DC0005040E695001CCAF72BD0FE2F29D0660FA5
:100DD000771F881FBB1F261737074807AB07B0E8E8
:100DE00009F0BB0B802DBF01FF2793585F4F3AF0EE
:100DF0009E3F510578F00C94B2070C94FD075F3FBD
:100E0000E4F3983ED4F3869577956795B795F79573
:100E10009F5FC9F7880F911D9695879597F908955B
:100E2000E1E0660F771F881FBB1F621773078407F7
:100E3000BA0720F0621B730B840BBA0BEE1F88F706
:100E4000E09508950E94E20788F09F5798F0B92F27
:100E50009927B751B0F0E1F0660F771F881F991FEF
:100E60001AF0BA95C9F714C0B13091F00E94FC078E
:100E7000B1E008950C94FC07672F782F8827B85F9E
:100E800039F0B93FCCF3869577956795B395D9F747
:100E90003EF490958095709561957F4F8F4F9F4F51
:100EA0000895E89409C097FB3EF49095809570955D
:100EB00061957F4F8F4F9F4F9923A9F0F92F96E9A6
:100EC000BB279395F695879577956795B795F1111B
:100ED000F8CFFAF4BB0F11F460FF1BC06F5F7F4FB8
:100EE0008F4F9F4F16C0882311F096E911C07723CA
:100EF00021F09EE8872F762F05C0662371F096E8D3
:100F0000862F70E060E02AF09A95660F771F881FA1
:100F1000DAF7880F9695879597F90895990F000845
:100F2000550FAA0BE0E8FEEF16161706E807F907BB
:100F3000C0F012161306E407F50798F0621B730B56
:100F4000840B950B39F40A2661F0232B242B252BD7
:100F500021F408950A2609F4A140A6958FEF811D7A
:100F6000811D089597F99F6780E870E060E008951B
:100F70009FEF80EC089500240A94161617061806B1
:100F80000906089500240A9412161306140605068D
:100F90000895092E0394000C11F4882352F0BB0F1E
:100FA00040F4BF2B11F460FF04C06F5F7F4F8F4F81
:100FB0009F4F089557FD9058440F551F59F05F3FBC
:100FC00071F04795880F97FB991F61F09F3F79F06B
:100FD00087950895121613061406551FF2CF4695ED
:100FE000F1DF08C0161617061806991FF1CF86956F
:100FF0007105610508940895E894BB276627772753
:10100000CB0197F908950E948E0708F48FEF089599
:101010000E941B080C94C9070E94BB0738F00E946D
:10102000C20720F0952311F00C94B2070C94B80776
:1010300011240C94FD070E94DA0770F3959FC1F309
:10104000950F50E0551F629FF001729FBB27F00D76
:10105000B11D639FAA27F00DB11DAA1F649F6627CB
:10106000B00DA11D661F829F2227B00DA11D621F1A
:10107000739FB00DA11D621F839FA00D611D221FD4
:10108000749F3327A00D611D231F849F600D211DB8
:10109000822F762F6A2F11249F5750409AF0F1F03B
:1010A00088234AF0EE0FFF1FBB1F661F771F881FA4
:1010B00091505040A9F79E3F510580F00C94B20723
:1010C0000C94FD075F3FE4F3983ED4F38695779543
:1010D0006795B795F795E7959F5FC1F7FE2B880F4A
:1010E000911D9695879597F908950E948E07880B14
:1010F000990B0895EE0FFF1F0590F491E02D0994D0
:04110000F894FFCF91
:10110400010000000000000024018400B100760109
:10111400E200C000D4006E616E00696E66006F76F6
:0611240066000D0A000048
:00000001FF
